:100000000C9463000C948B000C948B000C94C40E25
:100010000C94C40E0C94C40E0C948B000C948B00A6
:100020000C948B000C948B000C948B000C948B0024
:100030000C948B000C948B000C948B000C948B0014
:100040000C945B0D0C948B000C94290D0C94030DF7
:100050000C948B000C948B000C948B000C948B00F4
:100060000C94A50D0C948B000000000024002700C8
:100070002A0000000000250028002B0000000000DE
:1000800023002600290004040404040404040202DA
:100090000202020203030303030301020408102007
:1000A0004080010204081020010204081020000012
:1000B0000008000201000003040700000000000027
:1000C0000000250F091911241FBECFEFD8E0DEBFB5
:1000D000CDBF23E0AEEAB1E001C01D92A534B20766
:1000E000E1F711E0A0E0B1E0E4E6F9E302C0059039
:1000F0000D92AE3AB107D9F710E0C2E6D0E004C0E5
:100100002197FE010E94751BC136D107C9F70E94D5
:10011000D5100C94A51C0C94000090911C03911117
:1001200008C020911D0330E02F5F3F4F2032310582
:1001300030F081E080931C038CE193E00895E0911E
:100140001E0391E09E0F90931E03F0E0E45EFC4FCF
:100150008383F2CF20911C03211108C020911D033D
:1001600030E02C5F3F4F2032310530F081E080934A
:100170001C038CE193E00895E0911E03F0E0E15E42
:10018000FC4F608371838283938380911E038C5F15
:1001900080931E03EECF08950895AF92BF92CF9241
:1001A000DF92EF92FF920F931F93CF93DF936C0137
:1001B0007B018B01040F151FEB015E01AE18BF0818
:1001C000C017D10759F06991D601ED91FC910190CA
:1001D000F081E02DC6010995892B79F7C501DF91E2
:1001E000CF911F910F91FF90EF90DF90CF90BF9034
:1001F000AF90089580911C03811110C040911E039F
:1002000050E06FE173E083E792E00E94CD0010922E
:100210001C0310921D0310921E03089590E080E0CD
:100220000895FC01538D448D252F30E0842F90E0FC
:10023000821B930B541710F0CF96089501970895E1
:10024000FC01918D828D981761F0A28DAE0FBF2FAA
:10025000B11D5D968C91928D9F5F9F73928F90E000
:1002600008958FEF9FEF0895FC01918D828D98176F
:1002700031F0828DE80FF11D858D90E008958FEFAC
:100280009FEF0895FC01918D228D892F90E0805C75
:100290009F4F821B91098F739927089583E792E0FE
:1002A0000E94420121E0892B09F420E0822F089569
:1002B00080E090E0892B29F00E944E0181110C947E
:1002C00000000895FC01A48DA80FB92FB11DA35AF9
:1002D000BF4F2C91848D90E001968F739927848F66
:1002E000A689B7892C93A089B1898C918370806489
:1002F0008C93938D848D981306C00288F389E02D2A
:1003000080818F7D80830895EF92FF920F931F93DA
:10031000CF93DF93EC0181E0888F9B8D8C8D9813B8
:100320001AC0E889F989808185FF15C09FB7F894C4
:10033000EE89FF896083E889F98980818370806410
:1003400080839FBF81E090E0DF91CF911F910F915B
:10035000FF90EF900895F62E0B8D10E00F5F1F4F6A
:100360000F731127E02E8C8D8E110CC00FB607FC79
:10037000FACFE889F989808185FFF5CFCE010E9407
:100380006201F1CFEB8DEC0FFD2FF11DE35AFF4F12
:10039000F0829FB7F8940B8FEA89FB898081806295
:1003A000CFCF682F83E792E00C948401682F83E716
:1003B00092E00C948401CF93DF93EC01888D882325
:1003C000B9F0AA89BB89E889F9898C9185FD03C0B8
:1003D000808186FD0DC00FB607FCF7CF8C9185FF9D
:1003E000F2CF808185FFEDCFCE010E946201E9CF7F
:1003F000DF91CF910895833081F028F4813099F016
:100400008230A9F008958730A9F08830C9F084308F
:10041000B1F4809180008F7D03C0809180008F7740
:1004200080938000089584B58F7784BD089584B546
:100430008F7DFBCF8091B0008F778093B0000895BF
:100440008091B0008F7DF9CFCF93DF93282F30E0DC
:10045000F901E255FF4F8491F901E656FF4FD4911F
:10046000F901EA57FF4FC491CC23A1F081110E94FA
:10047000FB01EC2FF0E0EE0FFF1FE458FF4FA591BA
:10048000B491EC91ED2381E090E009F480E0DF91FC
:10049000CF91089580E090E0FACF1F93CF93DF9340
:1004A000282F30E0F901E255FF4F8491F901E6561B
:1004B000FF4FD491F901EA57FF4FC491CC23A9F023
:1004C000162F81110E94FB01EC2FF0E0EE0FFF1FB1
:1004D000EE58FF4FA591B4918FB7F894EC9111119C
:1004E00008C0D095DE23DC938FBFDF91CF911F91A1
:1004F0000895DE2BF8CF10927202109271021092C2
:10050000700210926F0210926E0281E080936D0271
:1005100010926C0261E082E10E944D0261E083E191
:100520000E944D02E9EBF0E080818E7F8083808124
:100530008D7F808388E48093B80085E48093BC003D
:100540008BEC90E090936B0280936A028CEC90E0CD
:1005500090936902809368020895CF93DF9390E0AF
:10056000FC01E656FF4F24918A579F4FFC0184916E
:100570008823D1F090E0880F991FFC01E859FF4FC4
:10058000A591B491FC01EE58FF4FC591D491611132
:100590000EC09FB7F8948C91E22FE0958E238C9338
:1005A0002881E223E8839FBFDF91CF9108958FB721
:1005B000F894EC91E22BEC938FBFF6CF3FB7F89411
:1005C0008091380290913902A0913A02B0913B0299
:1005D00026B5A89B05C02F3F19F00196A11DB11D9E
:1005E0003FBFBA2FA92F982F8827BC01CD01620FDA
:1005F000711D811D911D42E0660F771F881F991F95
:100600004A95D1F708958F929F92AF92BF92CF9261
:10061000DF92EF92FF924B015C010E94DE026B01C0
:100620007C010E94DE026C197D098E099F09683EDB
:10063000734081059105A8F321E0821A9108A10871
:10064000B10888EEC80E83E0D81EE11CF11C8114AD
:100650009104A104B10429F7FF90EF90DF90CF90AF
:10066000BF90AF909F908F90089585ED8093BC00D0
:100670008091BC0084FDFCCF10926E020895209101
:10068000F001260F3327331F21323105ECF420917E
:100690006E02FC0190E080E0243069F082E0089571
:1006A000A091F0012191AC0140535E4FA40FB52FF2
:1006B000B11D2C930196861798F38091F001680F75
:1006C0006093F00180E0089581E00895ECEBF0E0A4
:1006D00080818A7B808360E082E10E944D0260E03D
:1006E00083E10C944D020895E091720280917102B1
:1006F000E81730F4F0E0E055FE4F808190E0089577
:100700008FEF9FEF089590917202809171022FEF09
:100710003FEF981748F4E92FF0E0E055FE4F2081B5
:1007200030E09F5F90937202C90108958091710239
:1007300090917202891B990B0895CF93DF93CB019F
:10074000EA01642F0E943F03CE01DF91CF9108950B
:10075000CF93DF931F92CDB7DEB7698361E0CE01FF
:1007600001960E943F0381E090E00F90DF91CF91CE
:10077000089590E080E00895CF92DF92EF92FF928B
:1007800083E792E00E9442011816190664F483E799
:1007900092E00E944201181619060CF583E792E0D8
:1007A0000E942001EDCF0E94DE026B017C0183E7F5
:1007B00092E00E944201892B51F70E94DE026C15E3
:1007C0007D058E059F05E0F20E94DE026C197D0911
:1007D0008E099F09613177428105910540F3FF90B1
:1007E000EF90DF90CF9008954F925F926F927F923B
:1007F0008F929F92AF92BF92CF92DF92EF92FF9231
:100800000F931F93CF93C82F2A013B015901ECE1AD
:10081000F3E01082118281E0828382E0838388E1A9
:100820000E948D008C2F0E948D0083E00E948D001D
:10083000C301B2010E94AA00C501B8010E94AA002A
:10084000C701B6010E94AA00CF911F910F91FF909E
:10085000EF90DF90CF90BF90AF909F908F907F9060
:100860006F905F904F900C94FA00CF92DF92EF92CE
:10087000FF92CF93C82F6A017B01ECE1F3E0108275
:10088000118281E0828382E0838388E10E948D006F
:100890008C2F0E948D0081E00E948D00C701B6015F
:1008A0000E94AA00CF91FF90EF90DF90CF900C9420
:1008B000FA00CF93DF93EB01FC0186810E942402B2
:1008C000019799F06FEF7FEFCB01CF3FDC0751F03D
:1008D00061E070E080E090E0219721F060E071E05D
:1008E00080E090E0DF91CF91089560E070E0CB016F
:1008F000F9CFDC0191961C921E92909796961D92CC
:100900001D921D921C92999718961C9218971A96F0
:100910001C921A971B961C921B971C961D921D9257
:100920001D921C921F9750961D921D921D921C9213
:100930005397D6961D921D921D921C92D99740E016
:1009400050E060E070E89A964D935D936D937C93D0
:100950009D979E961D921D921D921C92D197ED918E
:10096000FC910480F581E02D0994CF92DF92EF9203
:10097000FF920F931F93CF93DF93EC01FC01E350A1
:10098000FF4F84E690E0A0E0B0E080839183A283F3
:10099000B383349680839183A283B3833496808318
:1009A0009183A283B3833C971082319610826E01AB
:1009B00081EFC80ED11CD6018D919C910E947904C3
:1009C0007E01B3EFEB0EF11CF701808191810E9453
:1009D00079048E010B501F4FD8018D919C910E947C
:1009E0007904D601ED91FC9112AA13AA14AA15AAB2
:1009F000D701ED91FC9112AA13AA14AA15AAD80145
:100A0000ED91FC9112AA13AA14AA15AAFE01E75FA0
:100A1000FE4F80E090E0A0E0B0E880839183A28365
:100A2000B383C35FDE4F188219821A821B82DF9163
:100A3000CF911F910F91FF90EF90DF90CF9008958D
:100A400083E508958AE50895089582E5089589E586
:100A5000089581E5089588E50895CB010895FC0186
:100A6000828190E387FD91E3938390E386FD91E398
:100A7000948390E385FD91E3958390E384FD91E376
:100A8000968390E383FD91E3978390E382FD91E366
:100A9000908790E381FD91E3918780FD06C080E31C
:100AA00082871386CF010396089581E3F9CF1092D0
:100AB00001011092000110926702109266021092DA
:100AC0006502109264021092630210926202109208
:100AD0005C0210925D0210925E0210925F02109210
:100AE00058021092590210925A0210925B02109210
:100AF0005402109255021092560210925702109210
:100B0000500210925102109252021092530210920F
:100B10004C0210924D0210924E0210924F0210920F
:100B200048021092490210924A0210924B02089514
:100B30000F931F93CF93DF938C0180916E028111ED
:100B4000FCCF81E080936E0280936D029FEF9093C3
:100B50001302109235028093340280933602809102
:100B6000360280618093360280916C02813099F563
:100B700010926C02809136028093BB008091BC0081
:100B800083FDF8CF85EC8093BC0080916E028130AC
:100B9000E1F380913502823000F580913502E4E185
:100BA000F2E0A0EBB1E090E0981319C0109272024D
:100BB00090937102992369F0D0E0C0E090917102A6
:100BC000809172029817F1F0209769F0C130D10539
:100BD00091F080E018C085EED6CF82E0E0CF219181
:100BE0002D939F5FE1CF80E193E00E948303F801A2
:100BF00080832196E3CF80E193E00E948303F80194
:100C00008183F7CF81E0DF91CF911F910F910895FC
:100C10008F929F92AF92BF92CF92DF92EF92FF920C
:100C20000F931F93CF93DF938C01FC01E450FF4F90
:100C30008081882309F44DC0E801C950DF4FCE01FF
:100C40000E949805882309F4A5C0C881F801E850DE
:100C5000FF4F108110921C0310921D0381E08093BE
:100C60001E0382E080931F0385E10E948D0088E0CF
:100C70000E948D002FB7F89460913C0270913D0264
:100C800080913E0290913F022FBF2FEF3FEF4FEF39
:100C90005FE70E94531B0E94AA008C2F0E948D00C8
:100CA000812F0E948D008FEF0E948D008FEF0E9498
:100CB0008D000E94FA0081E0DF91CF911F910F918A
:100CC000FF90EF90DF90CF90BF90AF909F908F906C
:100CD0000895F801EF50FF4F70E060E0808191814E
:100CE0000E9459044B015C01F801ED50FF4F70E088
:100CF00060E0808191810E9459046B017C01F801C0
:100D0000EB50FF4F70E060E0808191810E945904B8
:100D1000C0E421E082169104A104B10471F0C0EC9A
:100D2000811421E09206A104B10439F0C0E08B20C7
:100D30008A208920809409F4C0E821E0C216D104F9
:100D4000E104F10401F1C11421E0D206E104F1044F
:100D500039F0CF20CE20CD20C09419F4C06201C05C
:100D6000C063613071058105910591F0611521E045
:100D700072078105910549F06F3F7F4F8F4F9F4F5D
:100D800029F4C86003C0C061ECCFCC6010E062CF32
:100D9000C460FCCF10E0C0E05DCFFC0101900020FA
:100DA000E9F73197AF01481B590BBC0183E792E08B
:100DB0000C94CD008F929F92AF92BF920F931F938E
:100DC000CF93DF93CDB7DEB7A1970FB6F894DEBF10
:100DD0000FBECDBF19A2423008F44AE08E010F5D6C
:100DE0001F4F842E912CB12CA12CA50194010E949F
:100DF000531BE62FB901CA01EA30F4F4E05DD801D3
:100E0000EE938D01232B242B252B79F790E080E0A6
:100E1000109719F0CD010E94CD06A1960FB6F89457
:100E2000DEBF0FBECDBFDF91CF911F910F91BF905D
:100E3000AF909F908F900895E95CE1CFCF92DF92C1
:100E4000EF92FF92CF93DF9397FF19C06B017C0164
:100E50008DE20E94D601EC0166277727CB016C1941
:100E60007D098E099F094AE00E94DA068C0F9D1FBA
:100E7000DF91CF91FF90EF90DF90CF9008954AE0FF
:100E8000DF91CF91FF90EF90DF90CF900C94DA0636
:100E9000BC01990F880B990B0C941E07682F70E00A
:100EA00090E080E04AE00C94DA060F931F93CF9312
:100EB000C82F8B010E944E078AE30E94D60184E46A
:100EC00090E00E9448078AE30E94D601C8010E9470
:100ED00048078AE30E94D6018C2F0E9424020E94B8
:100EE00048078AE0CF911F910F910C94D60100978B
:100EF00011F00C94CD0690E080E00895CF92DF923F
:100F0000EF92FF92F0906702F1101CC08091660290
:100F1000811118C080916502811114C08091640212
:100F2000811110C08091630281110CC08091620216
:100F3000811108C080916102811104C0809160021A
:100F40008823D1F18BE50E94D6018F2D0E944E0798
:100F50008CE20E94D601809166020E944E078CE2CC
:100F60000E94D601809165020E944E078CE20E9489
:100F7000D601809164020E944E078CE20E94D60145
:100F8000809163020E944E078CE20E94D6018091FC
:100F900062020E944E078CE20E94D601809161029B
:100FA0000E944E078CE20E94D601809160020E944E
:100FB0004E078DE50E94D601C0905C02D0905D0284
:100FC000E0905E02F0905F02C114D104E104F104EC
:100FD00009F056C08091580290915902A0915A028E
:100FE000B0915B02892B8A2B8B2B09F049C0809131
:100FF000540290915502A0915602B0915702892B4C
:101000008A2B8B2BE9F58091500290915102A0918F
:101010005202B0915302892B8A2B8B2B89F5809138
:101020004C0290914D02A0914E02B0914F02892B3B
:101030008A2B8B2B29F58091480290914902A0912F
:101040004A02B0914B02892B8A2B8B2BC9F48091D9
:10105000440290914502A0914602B0914702892B2B
:101060008A2B8B2B69F48091400290914102A091D0
:101070004202B0914302892B8A2B8B2B09F465C065
:101080008BE50E94D601C701B6010E941E078CE2C3
:101090000E94D601609158027091590280915A02C3
:1010A00090915B020E941E078CE20E94D601609123
:1010B00054027091550280915602909157020E94FD
:1010C0001E078CE20E94D60160915002709151027D
:1010D00080915202909153020E941E078CE20E945E
:1010E000D60160914C0270914D0280914E02909118
:1010F0004F020E941E078CE20E94D60160914802B6
:101100007091490280914A0290914B020E941E0701
:101110008CE20E94D6016091440270914502809158
:101120004602909147020E941E078CE20E94D6015F
:10113000609140027091410280914202909143027D
:101140000E941E078DE50E94D601809100019091BA
:101150000101892B71F08AE891E00E947707809164
:10116000000190910101FF90EF90DF90CF900C94DF
:101170007707FF90EF90DF90CF900895CF93DF93A4
:10118000D82FC62F62E083E792E00E94840167E1D6
:1011900083E792E00E94840165E4D53421F067E59D
:1011A000D73509F069E483E792E00E948401CC23FB
:1011B00051F063E283E792E00E9484016C2F83E7A1
:1011C00092E00E9484010E947E0790E080E00E94ED
:1011D000D10183E792E0DF91CF910C94DB01682F7E
:1011E00085E40C94BE08CF92DF92EF92FF92CF93EA
:1011F000DF93EC0188858823F1F08DEF0E94EF08E2
:10120000C12CD12C760168A179A1CE010E9459048C
:10121000672B682B692B31F083E30E94EF08C12C08
:10122000D12C7601C701B601DF91CF91FF90EF90ED
:10123000DF90CF900895C12CD12C7601C394E3CFD9
:101240004F925F926F927F928F929F92AF92BF92D6
:10125000CF92DF92EF92FF920F931F93CF93DF9382
:10126000EC017B01FB0180818A3209F420C138F551
:101270008E3109F4D4C0A0F48B3109F469C040E088
:1012800050E0BA0181EF0E9435040E945705F70132
:1012900080818093670286E00E94EF0885E0A9C004
:1012A0008F3109F4C6C0803251F7CB50DF4FE8814F
:1012B000F98142A153A164A175A180E297C0803455
:1012C00009F4C1C0A8F58C3309F4D1C08F33B9F645
:1012D000FE01ED50FF4F0190F081E02DC2A8D3A890
:1012E000E4A8F5A8CF50DF4FE881F98182A893A840
:1012F000A4A8B5A810921C0310921D0381E080934E
:101300001E0382E080931F0388E10E948D008FE31B
:101310000E948D0082E00E948D00C501B4010E94F0
:10132000AA00C701B6010E94AA000E94FA0060C08C
:10133000813409F492C0823409F0A1CFCB50DF4F41
:10134000E881F98142A953A964A975A982E44EC034
:10135000FE01EF50FF4F808191810E94F3086B01E5
:101360007C01C114D104E104F10409F053C00E94CE
:1013700057058CE891E0909301018093000189E288
:101380000E94EF08FE01ED50FF4F808191810E9485
:10139000F308672B682B692B71F40E9457058EE8C0
:1013A00091E0909301018093000189E20E94EF088F
:1013B000C12CD12C7601CB50DF4F888199810E94BE
:1013C000F308672B682B692B71F40E94570580E99D
:1013D00091E0909301018093000189E20E94EF085F
:1013E000C12CD12C7601B701A6018BE10E943504F6
:1013F00084E0DF91CF911F910F91FF90EF90DF90EC
:10140000CF90BF90AF909F908F907F906F905F90A4
:101410004F900895C12CD12C7601C394B3CFCF50F7
:10142000DF4FE881F98142A153A164A175A18EE14A
:10143000DDCFCD50DF4FE881F98142A153A164A1F6
:1014400075A18FE1D3CFCF50DF4FE881F98142A959
:1014500053A964A975A980E4C9CFCD50DF4FE881B5
:10146000F98142A953A964A975A981E4BFCFFE01FE
:10147000EB50FF4F0190F081E02DC2A8D3A8E4A863
:10148000F5A8FE01ED50FF4F0190F081E02D02A97B
:1014900013A924A935A9CF50DF4FE881F98142A9CA
:1014A00053A964A975A98CE30E94F403A1CF70E04D
:1014B00060E0FE01EF50FF4F808191810E9459044E
:1014C0004B015C0170E060E0FE01ED50FF4F808158
:1014D00091810E9459042B013C0170E060E0FE0103
:1014E000EB50FF4F808191810E9459046B017C0178
:1014F0008114F1E09F06A104B10469F0411481E078
:1015000058066104710439F0C11491E0D906E10470
:10151000F10409F047C0FE01E450FF4F80818823A9
:1015200009F440C0C950DF4FCE010E9498058823BE
:10153000C9F1888187FF02C086FD34C0982F90735F
:10154000903381F1982F9C709C3061F18114E1E01F
:101550009E06A104B10431F4582F507487FF28C0AF
:10156000552391F14114F1E05F066104710451F4D7
:10157000582F507185FF2DC0511104C044244A9446
:10158000542C3201C11491E0D906E104F10451F464
:10159000482F447083FF29C0411104C0CC24CA9451
:1015A000DC2C760193018201B501A4018AE27CCF93
:1015B00041E030E020E090E0511101C040E0842E95
:1015C000932EA22EB92ECECF88248A94982C540123
:1015D000C9CF41E030E020E090E0511101C040E08F
:1015E000442E532E622E792ECDCF31E020E090E0B4
:1015F00080E0411101C030E0C32ED22EE92EF82E3A
:10160000D1CF8F929F92AF92BF92CF92DF92EF9203
:10161000FF921F93CF93DF93EC01E881F98106805D
:10162000F781E02D0995182F86E40E944E078AE382
:101630000E94D601E881F9810480F581E02DCE0178
:1016400009950E94D6018AE090E00E94D1018AE8C3
:1016500091E00E9477078AE891E00E94770784E68C
:101660000E944E078AE30E94D601688D798D90E032
:1016700080E04AE00E94DA068AE090E00E94D10110
:101680008AE891E00E9477078AE891E00E94770754
:1016900085E60E944E078AE30E94D6016A8D7B8D03
:1016A00090E080E04AE00E94DA068AE090E00E9442
:1016B000D1018AE891E00E9477078AE891E00E94D0
:1016C000770786E60E944E078AE30E94D6016C8D5A
:1016D0007D8D90E080E04AE00E94DA068AE090E0AA
:1016E0000E94D1018AE891E00E9477078AE891E0A0
:1016F0000E94770788E40E944E078AE30E94D60181
:101700006AA17BA18CA19DA14AE00E94DA068AE031
:1017100090E00E94D1018AE891E00E9477078AE870
:1017200091E00E94770788EC0E944E078AE30E94AE
:10173000D601CC88DD88EE88FF88A7019601C70115
:10174000B6010E944E1B882309F4C7C082E991E0CC
:101750000E94CD068AE090E00E94D1018AE891E0E3
:101760000E9477078AE891E00E9477078CE40E9444
:101770004E078AE30E94D6016EA17FA188A599A594
:101780004AE00E94DA068AE090E00E94D1018AE8ED
:1017900091E00E9477078AE891E00E94770789E448
:1017A0000E944E078AE30E94D6018C810E944E0758
:1017B0008AE090E00E94D1018AE891E00E947707D8
:1017C0008AE891E00E9477078AE40E944E078AE344
:1017D0000E94D6018D810E944E078AE090E00E940F
:1017E000D1018AE891E00E9477078AE891E00E949F
:1017F0007707812F0E944E078AE30E94D6018F81CE
:1018000090E00E9448078AE090E00E94D1018AE8B7
:1018100091E00E9477078AE891E00E94770788E2CA
:101820000E944E078AE30E94D6018A8590E00E94BA
:1018300048078AE090E00E94D1018AE891E00E9486
:1018400077078AE891E00E94770789E20E944E07B5
:101850008AE30E94D6018B8590E00E9448078AE0C7
:1018600090E00E94D1018AE891E00E9477078AE81F
:1018700091E00E9477078AE20E944E078AE30E9465
:10188000D60168A179A1CE010E9459040E941E07C9
:101890008AE090E00E94D1018AE891E00E947707F7
:1018A0008AE891E00E94770781E20E944E078AE36E
:1018B0000E94D60188A199A10E9448078AE090E081
:1018C000DF91CF911F91FF90EF90DF90CF90BF906D
:1018D000AF909F908F900C94D10146015701E894EE
:1018E000B7F82FEF3FEF4FE75FE7C501B4010E9464
:1018F0004E1B81110DC02FEF3FEF4FE75FE7C50192
:10190000B4010E94171918161CF486E991E020CF43
:101910002FEF3FEF4FE75FE4C701B6010E94491B7D
:1019200018161CF48AE991E013CF2FEF3FEF4FE731
:101930005FECC701B6010E94171987FDF3CF20E0C5
:1019400030E0A901C701B6010E94171987FF07C03F
:101950008DE20E94D601F7FAF094F7F8F0942AE0AD
:1019600037ED43EA5BE3C701B6010E943C1A4B0125
:101970005C010E941A1B6B017C010E941C199B01D7
:10198000AC01C501B4010E943B1A4B015C014AE065
:10199000C701B6010E94DA068EE20E94D60120E05D
:1019A00030E040E251E4C501B4010E947D194B01D1
:1019B0005C010E941A1B6B01F12CE12C4AE0C7016B
:1019C000B6010E94DA06C701B6010E941C199B01EC
:1019D000AC01C501B4010E943B1A20E030E040E2B6
:1019E00051E40E947D190E941A1B90E080E04AE0B9
:1019F0000E94DA06AFCE0E94A01C0C94171C0C9417
:101A0000171C0C94171C1F920F920FB60F921124E3
:101A10002F933F934F935F936F937F938F939F93F6
:101A2000AF93BF93EF93FF9383E792E00E9462012D
:101A3000FF91EF91BF91AF919F918F917F916F91A6
:101A40005F914F913F912F910F900FBE0F901F907C
:101A500018951F920F920FB60F9211242F938F9308
:101A60009F93EF93FF93E0918302F0918402808132
:101A7000E0918902F0918A0282FD1BC090818091E1
:101A80008C028F5F8F7320918D02821741F0E0915D
:101A90008C02F0E0ED58FD4F958F80938C02FF9102
:101AA000EF919F918F912F910F900FBE0F901F90EC
:101AB00018958081F4CF1F920F920FB60F921124C8
:101AC0002F933F938F939F93AF93BF9380913C024B
:101AD00090913D02A0913E02B0913F0230913702B9
:101AE00023E0230F2D3758F50196A11DB11D20933A
:101AF000370280933C0290933D02A0933E02B09344
:101B00003F028091380290913902A0913A02B0913F
:101B10003B020196A11DB11D8093380290933902BA
:101B2000A0933A02B0933B02BF91AF919F918F91E6
:101B30003F912F910F900FBE0F901F90189526E8A0
:101B4000230F0296A11DB11DD2CF1F920F920FB687
:101B50000F9211242F933F934F935F936F937F9333
:101B60008F939F93AF93BF93EF93FF938091B900AF
:101B7000887F803609F44AC0F0F5883209F4A7C09E
:101B800018F5803109F49BC0B8F4882309F4F9C032
:101B9000883009F494C0FF91EF91BF91AF919F916C
:101BA0008F917F916F915F914F913F912F910F9006
:101BB0000FBE0F901F901895883109F488C08032AD
:101BC00051F78093130214C0803409F49DC040F48F
:101BD0008033B9F38833F9F68093130285ECB0C0F3
:101BE000803509F485C0883509F496C0883499F6A3
:101BF0000E943503D0CF883909F48CC038F5883776
:101C000029F050F4883611F0803729F683E080936C
:101C10006E021092120257C0883809F47BC08039D6
:101C200019F0803809F0B7CF80911202803208F0A5
:101C300071C0E091120281E08E0F809312028091B8
:101C4000BB00F0E0EE50FE4F80833DC0803B39F09A
:101C5000E0F4803A09F479C0883A09F09CCF84E036
:101C600080936E021092F1011092F001E0916A02ED
:101C7000F0916B0209958091F00181110FC081E014
:101C80008093F0011092D00109C0803C09F4A6CFE6
:101C9000883C09F4A3CF883B09F07DCFE091F101A6
:101CA00081E08E0F8093F101F0E0E053FE4F8081E0
:101CB0008093BB009091F1018091F00129C0809147
:101CC00036028093BB0085EC8093BC0064CF90917A
:101CD000350280913402981758F5E091350281E081
:101CE0008E0F80933502F0E0EC5EFD4F8081E9CFEE
:101CF000E091350281E08E0F809335028091BB0028
:101D0000F0E0EC5EFD4F80839091350280913402CB
:101D10009817C8F285E8D8CFE091350281E08E0FA0
:101D2000809335028091BB00F0E0EC5EFD4F808334
:101D300080916D0281115CCF81E080936C0284EA16
:101D40008093BC0010926E0226CF85EC8093BC007D
:101D500010926E0280911202803230F4E0911202F1
:101D6000F0E0EE50FE4F10826091120270E0E091C0
:101D70006802F091690282EF91E0099510921202D7
:101D80000ACF1092130234CF1F920F920FB60F9208
:101D900011240F900FBE0F901F901895FC01DB01CE
:101DA0008CE091E0918380838D919C911197938336
:101DB000828312968C911297848313968C91139739
:101DC000858314968C9186831086118612861386DD
:101DD0001486158616861786108A118A128A138A27
:101DE00080E090E0A0E8BFE3848B958BA68BB78B57
:101DF0008AE090E0918F808F84EF91E0938F828FC3
:101E0000958F848F88EE93E0978F868F11A210A212
:101E100080E991E0A0E0B0E082A393A3A4A3B5A3DE
:101E200016A217A210A611A612A613A614A615A6EE
:101E300016A617A610AA11AA12AA13AA14AA15AABE
:101E400016AA17AA10AE11AE0895DF92EF92FF9274
:101E50000F931F93CF93DF9300D000D01F92CDB785
:101E6000DEB7109276021092750288EE93E0A0E041
:101E7000B0E08093770290937802A0937902B093B8
:101E80007A0228E131E0309374022093730225EC4A
:101E900030E03093800220937F0224EC30E03093D6
:101EA00082022093810220EC30E030938402209360
:101EB000830221EC30E0309386022093850222ECED
:101EC00030E0309388022093870226EC30E0309394
:101ED0008A022093890210928C0210928D02109235
:101EE0008E0210928F0210921303109212038093AD
:101EF000140390931503A0931603B09317038AE27B
:101F000091E0909311038093100385E191E00E948A
:101F10007B1B8C0181EFD80112968C93F8013596CA
:101F200092E9DF011D929A95E9F7F80185831682FF
:101F3000379690E9DF011D929A95E9F7E057FF4F38
:101F4000108211821282138234961182108232968C
:101F500011821082D801A156BF4F9D012E5F3F4FC5
:101F60009DE0F90111929A95E9F7F801EF55FF4FBD
:101F700010821182128213821482158216821782B5
:101F8000108611861286138614861F961D921D9246
:101F90001D921C92529753961D921D921D921C9257
:101FA000569757961D921D921D921C925A975B96BA
:101FB0001D921D921D921C925E9790961C921E92ED
:101FC0005F9792961C921E9291972F5D3F4FA901A9
:101FD0004E5F5F4F9DE2FA0111929A95E9F7F80181
:101FE000EC53FF4F1082818384E0D82ED28213827B
:101FF0001482158216821782108611861286138625
:102000001486158616861786108A118A128A138AF4
:10201000148A158A168A178A108E118E128E138EC4
:10202000148E158E168E178E10A211A212A213A254
:1020300014A215A216A217A210A611A612A613A6E4
:1020400014A680E691E0F8019183808380E791E017
:10205000948383838AE791E08D939C9384E891E055
:10206000D9018D939C931A83098382E08B8385E049
:102070008C8389E08D838AE390E00E947B1B7C0146
:10208000BE016F5F7F4F0E94CE0E8CE391E0F7019F
:1020900091838083F801EF50FF4FF182E0821A8331
:1020A000098383E08B8386E08C838AE08D838AE3D7
:1020B00090E00E947B1B7C01BE016F5F7F4F0E94FE
:1020C000CE0E88E491E0D7018D939C93F801ED50FA
:1020D000FF4FF182E0821A830983DB8287E08C83E1
:1020E0008BE08D838AE390E00E947B1B7C01BE0124
:1020F0006F5F7F4F0E94CE0E84E591E0F7019183E0
:102100008083F801EB50FF4FF182E082329610821B
:102110001182329610823196108231961082319659
:102120001082319684E690E0A0E0B0E08083918355
:10213000A283B383349680839183A283B38334963E
:1021400080839183A283B383349680E090E0A0E003
:10215000B0E880839183A283B38334961082118286
:10216000128213823496108211821282138210938B
:10217000400300933F0310921C0310921D03109222
:102180001E03EFE1F3E0119283E0EF33F807D9F794
:102190000F900F900F900F900F90DF91CF911F91A4
:1021A0000F91FF90EF90DF900895CF93DF93CDB71D
:1021B000DEB728970FB6F894DEBF0FBECDBF789478
:1021C00084B5826084BD84B5816084BD85B582603C
:1021D00085BD85B5816085BD80916E0081608093ED
:1021E0006E00109281008091810082608093810056
:1021F0008091810081608093810080918000816066
:10220000809380008091B10084608093B1008091C0
:10221000B00081608093B00080917A0084608093E8
:102220007A0080917A00826080937A0080917A00AF
:10223000816080937A0080917A00806880937A0030
:102240001092C1000E947B02E0918302F09184020F
:1022500082E08083E0917F02F09180021082E09121
:102260008102F091820280E1808310928B02E091E2
:102270008702F091880286E08083E0918502F091E8
:102280008602808180618083E0918502F0918602E0
:10229000808188608083E0918502F0918602808150
:1022A00080688083E0918502F091860280818F7D35
:1022B000808388EE93E0A0E0B0E080937702909373
:1022C0007802A0937902B0937A0283E792E00E94A9
:1022D000DB0161E085E00E94AD0260E085E00E94E4
:1022E0004D0261E086E00E94AD0260E086E00E945F
:1022F0004D0261E087E00E94AD0260E087E00E944D
:102300004D0261E082E00E94AD0260E082E00E9446
:102310004D0261E083E00E94AD0260E083E00E9434
:102320004D0261E084E00E94AD0260E084E00E9422
:102330004D0260E089E00E94AD0261E089E00E9408
:102340004D0260E08AE00E94AD0261E08AE00E94F6
:102350004D0260E08BE00E94AD0261E08BE00E94E4
:102360004D0261E088E00E94AD0261E08CE00E94D5
:10237000AD0261E081E10E94AD0261E081E10E9475
:10238000AD0260E081E10E944D0280913F03909197
:1023900040030E94B5040E94BC030E9466030E9491
:1023A0007B0220913F03309140033A8329838901C6
:1023B00009501F4FC8010E949805A981BA81A450F5
:1023C000BF4FBA83A9838C9381110CC068EE73E070
:1023D00080E090E00E940303C8010E949805E98113
:1023E000FA8180835EE9452E51E0552E6BE9262E59
:1023F0006FE0362E83E792E00E944201181619061C
:10240000CCF080913F0390914003FC01E450FF4FDA
:102410002081222321F089509F4F0E94980580E05F
:1024200090E0892B39F30E944E018823D9F20E9453
:102430000000D8CF83E792E00E9420019A8389832D
:1024400099278336910509F489C20CF062C0803562
:10245000910509F49AC00CF03FC08734910509F446
:10246000AEC04CF48397D9F20E945705B981B0935E
:10247000670281E02EC08834910509F48EC089344A
:10248000910591F720913F03309140033A832983CE
:1024900060E08CE00E944D0261E088E00E944D0205
:1024A000E981FA81EF50FF4F0190F081E02D81E04A
:1024B0008087E981FA81ED50FF4F0190F081E02D96
:1024C0008087A981BA81AB50BF4FED91FC91808785
:1024D0008DEF0E94EF08A3CF8235910509F462C009
:1024E0000CF47AC38335910509F495C086359105BE
:1024F00009F0BACF62E083E792E00E94840166E1CE
:1025000083E792E00E94840188EA91E00E94CD0670
:102510004AC38138910509F404C2ACF480379105AF
:1025200011F164F488569109029708F09DCF8091CB
:102530003F03909140030E94080613C08137910524
:1025400009F46DCF91CF8338910509F4FEC10CF4E5
:10255000F3C18438910509F466C18538910509F005
:1025600083CF84E072C0E0913F03F0914003E550D7
:10257000FF4F108261E08CE00E944D0264EF71E039
:1025800080E090E00E9403034ACFE0913F03F09186
:102590004003E550FF4F81E0808360E08CE00E94C3
:1025A0004D023DCF80913F03909140030E94B504BE
:1025B0000E94BC030E9466030E947B02D2CFE0917E
:1025C0003F03F0914003FA83E98381EF8283C101E5
:1025D0000197F1F783E792E00E944201181619066D
:1025E00044F483E792E00E942001A981BA81129607
:1025F0008C9369817A816E5F7F4FA981BA81ED9159
:10260000FC9111970480F581E02DCD010995813071
:1026100009F405CF1AC0E0913F03F0914003F88719
:10262000EF8381EF858316823F01F7E96F0E711CFE
:10263000C1010197F1F783E792E00E9442010297FE
:1026400074F482E00E94EF0885E0682F83E792E04F
:102650000E94840183E792E00E94DB01E0CE83E7E1
:1026600092E00E942001AF81B88515968C9383E794
:1026700092E00E942001EF81F885868383E792E053
:102680000E944201EF80F884FBE9EF0EF11CD701B4
:102690008D939C930F81188503561F4FF80111826B
:1026A0001082D7018D919C91EF81F8852681F4E00D
:1026B0002F9F9001112482179307A0F4C101019765
:1026C000F1F783E792E00E944201D7018D939C933A
:1026D000F80180819181019691838083059708F3A9
:1026E00083E0B0CF9C0123703327232B09F063C014
:1026F0008434910508F05FC00F811885D12CC12C5E
:10270000980126563F4F3A832983C80187569F4F29
:102710009C838B83D801A856BF4FBE83AD83D7015E
:102720008D919C919695879596958795C816D90613
:1027300008F065C04301B12CA12C2FB7F89480910B
:102740003C0290913D02A0913E02B0913F022FBF0A
:1027500080937B0290937C02A0937D02B0937E02D3
:1027600083E792E00E94200197FFA6C22FB7F8945A
:1027700080913C0290913D02A0913E02B0913F02B7
:102780002FBF40917B0250917C0260917D0270913D
:102790007E02841B950BA60BB70B409177025091DC
:1027A00078026091790270917A0284179507A607E2
:1027B000B707B0F295CF0E945705F701808191814C
:1027C000B0E0A0E080935C0290935D02A0935E0273
:1027D000B0935F0284E036CF0E941E1920E030E003
:1027E0004AE754E40E94A81AF8016487758786872F
:1027F0009787BFEFCB1ADB0A075F1F4F90CF6F8120
:1028000078856B5F7F4FAF81B8851396ED91FC9112
:1028100014970480F581E02DCD0103960995F1010F
:102820003197F1F7F4CE0E94570581E48093670257
:1028300082E48093660283E48093650284E480935B
:10284000640285E48093630286E48093620287E4F5
:102850008093610288E48093600281E090E0A0E0D0
:10286000B0E080935C0290935D02A0935E02B0930F
:102870005F0282E090E0A0E0B0E080935802909385
:102880005902A0935A02B0935B0283E090E0A0E06B
:10289000B0E08093540290935502A0935602B093F7
:1028A000570284E090E0A0E0B0E080935002909363
:1028B0005102A0935202B093530285E090E0A0E051
:1028C000B0E080934C0290934D02A0934E02B093DF
:1028D0004F0286E090E0A0E0B0E080934802909341
:1028E0004902A0934A02B0934B0287E090E0A0E037
:1028F000B0E08093440290934502A0934602B093C7
:10290000470288E090E0A0E0B0E08093400290931E
:102910004102A0934202B09343028CE30E94EF086D
:1029200020CE0E945705509201014092000160E0C4
:1029300089E40E94BE0815CE0E94570550920101FD
:102940004092000160E087E5F4CF0E945705509265
:1029500001014092000160E085E4EBCF62E083E793
:1029600092E00E94840166E183E792E00E94840184
:1029700087E40E944E078AE30E94D6018AE891E02C
:102980000E9477078AE00E94D6018AE891E00E94BF
:10299000770784E10E944E078AE30E94D60188EA05
:1029A00091E00E9477078AE00E94D601A0913F0340
:1029B000B0914003BA83A98382E30E944E078AE361
:1029C0000E94D6018AE090E00E94D1018AE891E05D
:1029D0000E94770784E30E944E078AE30E94D60193
:1029E000E981FA81E350FF4F608171818281938197
:1029F0000E941E078AE090E00E94D1018AE891E0DF
:102A00000E94770785E30E944E078AE30E94D60161
:102A1000E981FA81EF5FFE4F60817181828193814C
:102A20000E941E078AE090E00E94D1018AE891E0AE
:102A30000E94770786E30E944E078AE30E94D60130
:102A4000E981FA81EB5FFE4F608171818281938120
:102A50000E941E078AE090E00E94D1018AE891E07E
:102A60000E94770783E40E944E078AE30E94D60102
:102A7000E981FA81E650FF4F808190E00E9448078B
:102A80008AE090E00E94D1018AE891E00E947707F5
:102A90008BE40E944E078AE30E94D60188E00E94E0
:102AA000240221E030E0892B11F030E020E0C90160
:102AB0000E9448078AE090E00E94D1018AE891E0F4
:102AC0000E94770783E30E944E078AE30E94D601A3
:102AD0008CE00E94240221E030E0019711F030E008
:102AE00020E0C9010E9448078AE090E00E94D101DD
:102AF0008AE891E00E9477078EE20E944E078AE3FF
:102B00000E94D60109811A8104501F4FF80180816B
:102B100090E00E9448078AE090E00E94D101D8012D
:102B20008C91811145C00FEF1FEFEE24EA94FE2C2B
:102B30008AE891E00E9477078FE20E944E078AE3BD
:102B40000E94D601C7010E9448078AE090E00E94D7
:102B5000D1018AE891E00E94770780E30E944E0746
:102B60008AE30E94D601C8010E9448078AE090E0EB
:102B70000E94D101E981FA81EF50FF4F808191815C
:102B80000E94010BE981FA81ED50FF4F8081918114
:102B90000E94010B29813A812B503F4FD9018D9121
:102BA0009C910E94010B90E080E00E94D101D9CC61
:102BB00009811A8109501F4FC8010E949805882376
:102BC00009F4B1CFF801E080F12CE981FA81E850F5
:102BD000FF4F008110E0ACCF62E083E792E00E94FB
:102BE000840166E183E792E00E9484016FE470E073
:102BF00082E00E9455076FE470E083E00E94550771
:102C00006FE470E084E00E9455076FE470E085E0B7
:102C10000E9455076FE470E086E00E9455076FE45C
:102C200070E087E00E9455076FE470E088E00E9442
:102C3000550769E470E089E00E94550769E470E097
:102C40008AE00E94550769E470E08BE00E94550716
:102C500069E470E08CE00E94550769E470E08DE063
:102C60000E94550783E00E944E078AE30E94D60126
:102C700081E490E00E9448078AE30E94D60189E43B
:102C800090E00E9448078AE30E94D60183E4809383
:102C90007C0080917A00806480937A0080917A0031
:102CA00086FDFCCF80917800909179000E944807C2
:102CB0008AE00E94D60177CFF40181934F01FFEFA4
:102CC000AF1ABF0A24E0A216B10409F036CD611490
:102CD000710409F405CDE981FA818080482D50E026
:102CE00070E060E0742F662755274427AB81BC81D4
:102CF0008C90912CB12CA12C540199248824840E01
:102D0000951EA61EB71EED81FE81608170E090E0E9
:102D100080E0982F872F762F6627680D791D8A1DF2
:102D20009B1DD3012C91620F711D811D911DF80116
:102D30006087718782879387AF81B88515962C91BC
:102D4000283C80F04B015C01B1E08B1A9108A1088E
:102D5000B0E8BB0AEEEF8E16EFEF9E06AE06BE069B
:102D600008F43ACDD8011C961D921D921D921C921A
:102D70001F973FCD85E0089584E008950F931F933A
:102D8000CF93DF93EC0180E691E09983888380E71D
:102D900091E09C838B83FE01E156FF4F8AE791E02F
:102DA00091838083B39684E891E0918380838E0140
:102DB0000F501F4FD8018D919C91009739F0DC0185
:102DC000ED91FC910280F381E02D0995F8011182CB
:102DD00010828E010D501F4FD8018D919C9100974C
:102DE00039F0DC01ED91FC910280F381E02D099531
:102DF000F80111821082CB50DF4F888199810097B2
:102E000059F0DC01ED91FC910280F381E02DDF911E
:102E1000CF911F910F910994DF91CF911F910F9145
:102E2000089503970C94BE168F5991090C94BE1601
:102E3000825C91090C94BE16CF92DF92EF92FF92C2
:102E4000CF93DF93EB0128812B3409F48DC108F077
:102E50006EC0233309F4A0C1C0F5223209F4D9C0F1
:102E6000B0F42F3109F4FEC0203209F4FEC02E3137
:102E7000C1F58F509F4FDC01ED91FC918B819C81BE
:102E8000AD81BE8182A393A3A4A3B5A3C2C02C32FB
:102E900009F4DDC02D3209F4DDC02B3211F58F505D
:102EA0009F4FDC01ED91FC918B819C81AD81BE81B6
:102EB000181619061A061B060CF0CFC081E083878E
:102EC00081E090E091A380A3A4C0203409F4A3C0C2
:102ED000C0F4253309F434C108F426C1263309F4BB
:102EE0003CC10E94570588818093670282E00E945E
:102EF000EF0885E0DF91CF91FF90EF90DF90CF90CA
:102F00000895223409F49CC008F493C0233449F78F
:102F1000FC01E650FF4F91E04B815C816D817E8129
:102F2000452B462B472B09F490E0908372C02A363C
:102F300009F4B2C0A8F52B3509F46BC0C8F42235EA
:102F400009F4EAC0233509F4EAC0213551F68F505F
:102F50009F4FDC01ED91FC918B819C81AD81BE8105
:102F6000892B8A2B8B2B09F0DDC081E0878351C030
:102F7000283609F48BC008F08CC08F509F4F27363D
:102F800009F0AFCFDC01ED91FC912B813C81338FB7
:102F9000228F848D958D820F931F978F868F39C0D6
:102FA000203709F48BC0D8F42C3609F484C008F417
:102FB0007FC02E3609F095CFFC01E75FFE4F40E061
:102FC00050E060E070E84083518362837383835FE5
:102FD0009E4FFC0110821182128213821AC02A3C79
:102FE00009F446C088F4293C09F07BCF4F8158850D
:102FF00069857A858F509F4FDC01ED91FC91448B60
:10300000558B668B778B05C02B3CC9F12C3C09F0A6
:1030100068CF84E06FCF4B815C816D817E818F5062
:103020009F4FDC01ED91FC9142AB53AB64AB75ABB0
:10303000F0CF4B815C816D817E818D509F4FF1CFB0
:103040004B815C816D817E818B509F4FEACF8D508B
:103050009F4F27CF8B509F4F24CF81E082878FEFE8
:103060009FEF30CF8D509F4F06CF8B509F4F03CF98
:103070004F81588569857A858D509F4FBDCF4F818F
:10308000588569857A858B509F4FB6CF8D509F4F5D
:1030900079CF8B509F4F76CF8F509F4FDC01ED91B2
:1030A000FC912B813C81358F248F828D938D73CF42
:1030B0008D509F4FF3CF8B509F4FF0CFFC01EF50BF
:1030C000FF4F0190F081E02D40E050E060E070E8BB
:1030D00042A753A764A775A716A617A610AA11AAF8
:1030E000FC01ED50FF4F0190F081E02D42A753A766
:1030F00064A775A716A617A610AA11AA8B509F4FF2
:10310000DC01ED91FC9142A753A764A775A716A611
:1031100017A610AA11AA7DCF8D509F4F1ACF8B50A2
:103120009F4F17CF178275CF4B815C816D817E8158
:1031300083509F4FFC01408351836283738369CF27
:103140004B815C816D817E818F5F9E4FDC014D9351
:103150005D936D937C9313975CCF4B815C816D8104
:103160007E818B5F9E4FE6CF86509F4FDC018C9116
:1031700061E0811109C08B819C81AD81BE81892B69
:103180008A2B8B2B09F060E088E00E944D0283E2DD
:1031900090E00197F1F73DCF86509F4FDC018C9175
:1031A000882329F060E08CE00E944D0232CFCB8072
:1031B000DC80ED80FE8061E0C114D104E104F10403
:1031C00009F460E08CE00E944D02CD28CE28CF2883
:1031D00009F41FCF64EF71E080E090E00E940303E8
:1031E00018CF03970C941C17CF93DF93EC010E9428
:1031F000BE16CE01DF91CF910C94171C825C910911
:103200000C94F4188F5991090C94F41803970C94AA
:10321000F41880913F0390914003009739F0DC014E
:10322000ED91FC910280F381E02D099408950E94B4
:10323000591908F481E00895E89409C097FB3EF419
:1032400090958095709561957F4F8F4F9F4F9923F3
:10325000A9F0F92F96E9BB279395F6958795779571
:103260006795B795F111F8CFFAF4BB0F11F460FF31
:103270001BC06F5F7F4F8F4F9F4F16C0882311F089
:1032800096E911C0772321F09EE8872F762F05C09D
:10329000662371F096E8862F70E060E02AF09A9538
:1032A000660F771F881FDAF7880F9695879597F92D
:1032B0000895990F0008550FAA0BE0E8FEEF1616C7
:1032C0001706E807F907C0F012161306E407F5071A
:1032D00098F0621B730B840B950B39F40A2661F08E
:1032E000232B242B252B21F408950A2609F4A14031
:1032F000A6958FEF811D811D08950E9490190C9451
:10330000011A0E94F31938F00E94FA1920F095234F
:1033100011F00C94EA190C94F01911240C94351A3C
:103320000E94121A70F3959FC1F3950F50E0551F3C
:10333000629FF001729FBB27F00DB11D639FAA270A
:10334000F00DB11DAA1F649F6627B00DA11D661F59
:10335000829F2227B00DA11D621F739FB00DA11D7A
:10336000621F839FA00D611D221F749F3327A00D34
:10337000611D231F849F600D211D822F762F6A2FD0
:1033800011249F5750409AF0F1F088234AF0EE0F35
:10339000FF1FBB1F661F771F881F91505040A9F762
:1033A0009E3F510580F00C94EA190C94351A5F3F4A
:1033B000E4F3983ED4F3869577956795B795F7959E
:1033C000E7959F5FC1F7FE2B880F911D9695879516
:1033D00097F9089597F99F6780E870E060E0089595
:1033E0009FEF80EC089500240A941616170618061D
:1033F0000906089500240A941216130614060506F9
:103400000895092E0394000C11F4882352F0BB0F89
:1034100040F4BF2B11F460FF04C06F5F7F4F8F4FEC
:103420009F4F089557FD9058440F551F59F05F3F27
:1034300071F04795880F97FB991F61F09F3F79F0D6
:1034400087950895121613061406551FF2CF469558
:10345000F1DF08C0161617061806991FF1CF8695DA
:103460007105610508940895E894BB2766277727BE
:10347000CB0197F908955058BB27AA270E94531AE9
:103480000C94011A0E94F31938F00E94FA1920F0E6
:1034900039F49F3F19F426F40C94F0190EF4E095DA
:1034A000E7FB0C94EA19E92F0E94121A58F3BA1795
:1034B000620773078407950720F079F4A6F50C944A
:1034C000341A0EF4E0950B2EBA2FA02D0B01B90182
:1034D00090010C01CA01A0011124FF27591B99F08A
:1034E000593F50F4503E68F11A16F040A22F232F96
:1034F000342F4427585FF3CF469537952795A795E6
:10350000F0405395C9F77EF41F16BA0B620B730B8C
:10351000840BBAF09150A1F0FF0FBB1F661F771FFD
:10352000881FC2F70EC0BA0F621F731F841F48F4B2
:10353000879577956795B795F7959E3F08F0B0CF3B
:103540009395880F08F09927EE0F97958795089522
:103550000E94BC1A0C94011A0E94FA1958F00E9499
:10356000F31940F029F45F3F29F00C94EA19511146
:103570000C94351A0C94F0190E94121A68F39923CE
:10358000B1F3552391F3951B550BBB27AA2762175F
:103590007307840738F09F5F5F4F220F331F441F6C
:1035A000AA1FA9F335D00E2E3AF0E0E832D09150A0
:1035B0005040E695001CCAF72BD0FE2F29D0660F8D
:1035C000771F881FBB1F261737074807AB07B0E8D0
:1035D00009F0BB0B802DBF01FF2793585F4F3AF0D6
:1035E0009E3F510578F00C94EA190C94351A5F3F10
:1035F000E4F3983ED4F3869577956795B795F7955C
:103600009F5FC9F7880F911D9695879597F9089543
:10361000E1E0660F771F881FBB1F621773078407DF
:10362000BA0720F0621B730B840BBA0BEE1F88F7EE
:10363000E09508950E941A1A88F09F5798F0B92FC4
:103640009927B751B0F0E1F0660F771F881F991FD7
:103650001AF0BA95C9F714C0B13091F00E94341A2B
:10366000B1E008950C94341A672F782F8827B85F3B
:1036700039F0B93FCCF3869577956795B395D9F72F
:103680003EF490958095709561957F4F8F4F9F4F39
:1036900008950E94591908F48FEF08950E9459194E
:1036A000880B990B0895A1E21A2EAA1BBB1BFD01E2
:1036B0000DC0AA1FBB1FEE1FFF1FA217B307E40711
:1036C000F50720F0A21BB30BE40BF50B661F771F69
:1036D000881F991F1A9469F7609570958095909549
:1036E0009B01AC01BD01CF010895EE0FFF1F0590B6
:1036F000F491E02D09940F931F93CF93DF938230C1
:10370000910510F482E090E0E0914303F0914403CE
:1037100030E020E0B0E0A0E0309799F421153105C9
:1037200009F44AC0281B390B24303105D8F58A81A9
:103730009B816115710589F1FB0193838283FE01F1
:1037400011C0408151810281138148175907E0F06F
:103750004817590799F4109761F012960C93129735
:1037600013961C933296CF01DF91CF911F910F9149
:1037700008950093430310934403F4CF21153105BA
:1037800051F04217530738F0A901DB019A01BD013E
:10379000DF01F801C1CFEF01F9CF9093440380938B
:1037A0004303CDCFFE01E20FF31F8193919322508B
:1037B000310939832883D7CF2091410330914203C7
:1037C000232B41F4209104013091050130934203F1
:1037D000209341032091020130910301211531050D
:1037E00041F42DB73EB74091060150910701241BCB
:1037F000350BE0914103F0914203E217F307A0F487
:103800002E1B3F0B2817390778F0AC014E5F5F4F36
:103810002417350748F04E0F5F1F50934203409323
:103820004103819391939FCFF0E0E0E09CCFCF9351
:10383000DF930097E9F0FC01329713821282A09186
:103840004303B0914403ED0130E020E01097A1F470
:1038500020813181820F931F2091410330914203D7
:103860002817390709F061C0F0934203E093410340
:10387000DF91CF910895EA01CE17DF07E8F54A817D
:103880005B819E0141155105B1F7E901FB83EA8394
:1038900049915991C40FD51FEC17FD0761F4808140
:1038A00091810296840F951FE90199838883828113
:1038B00093819B838A83F0E0E0E012968D919C9146
:1038C00013970097B9F52D913C911197CD01029670
:1038D000820F931F2091410330914203281739072B
:1038E00039F6309751F51092440310924303B09388
:1038F0004203A0934103BCCFD383C2834081518153
:10390000840F951FC817D90761F44E5F5F4F8881F8
:103910009981480F591F518340838A819B819383EA
:1039200082832115310509F0B0CFF0934403E09371
:1039300043039ECFFD01DC01C0CF13821282D7CF9B
:1039400081E090E0F8940C94A51C10E0C2E6D0E071
:1039500004C0FE010E94751B2196C336D107C9F72A
:04396000F894FFCF09
:103964008B010000450380000000000000000000FF
:10397400FB0CFB0C000000008401CD001101DB01F5
:1039840042012001340100000000A8039D03B90393
:103994007303960383037403000000002405010DE0
:1039A4002B052905000000002405FF0C270525052B
:1039B400000000002405FD0C220520050000000085
:1039C400BE16F41820091C17BC16BA16FDFF000019
:1039D40011170619F11861FF000014170219BC161B
:1039E4003EFF00001817FE18BA16200058005900B0
:1039F4005A006E616E00696E66006F7666005465EB
:0E3A04007374207465787400302E392E3700EC
:00000001FF
